{"abi":[{"type":"function","name":"campaigns","inputs":[{"name":"","type":"uint256","internalType":"uint256"}],"outputs":[{"name":"brand","type":"address","internalType":"address"},{"name":"deadline","type":"uint256","internalType":"uint256"},{"name":"totalBudget","type":"uint256","internalType":"uint256"},{"name":"totalViews","type":"uint256","internalType":"uint256"},{"name":"resultsFinalized","type":"bool","internalType":"bool"}],"stateMutability":"view"},{"type":"function","name":"claimReward","inputs":[{"name":"campaignId","type":"uint256","internalType":"uint256"},{"name":"index","type":"uint256","internalType":"uint256"}],"outputs":[],"stateMutability":"nonpayable"},{"type":"function","name":"createCampaign","inputs":[{"name":"duration","type":"uint256","internalType":"uint256"}],"outputs":[{"name":"campaignId","type":"uint256","internalType":"uint256"}],"stateMutability":"payable"},{"type":"function","name":"finalizeResults","inputs":[{"name":"campaignId","type":"uint256","internalType":"uint256"}],"outputs":[],"stateMutability":"nonpayable"},{"type":"function","name":"getCampaignCount","inputs":[],"outputs":[{"name":"","type":"uint256","internalType":"uint256"}],"stateMutability":"view"},{"type":"function","name":"getSubmission","inputs":[{"name":"campaignId","type":"uint256","internalType":"uint256"},{"name":"index","type":"uint256","internalType":"uint256"}],"outputs":[{"name":"creator","type":"address","internalType":"address"},{"name":"link","type":"string","internalType":"string"},{"name":"views","type":"uint256","internalType":"uint256"},{"name":"reward","type":"uint256","internalType":"uint256"},{"name":"paid","type":"bool","internalType":"bool"}],"stateMutability":"view"},{"type":"function","name":"getSubmissionCount","inputs":[{"name":"campaignId","type":"uint256","internalType":"uint256"}],"outputs":[{"name":"","type":"uint256","internalType":"uint256"}],"stateMutability":"view"},{"type":"function","name":"setViews","inputs":[{"name":"campaignId","type":"uint256","internalType":"uint256"},{"name":"index","type":"uint256","internalType":"uint256"},{"name":"views","type":"uint256","internalType":"uint256"}],"outputs":[],"stateMutability":"nonpayable"},{"type":"function","name":"submit","inputs":[{"name":"campaignId","type":"uint256","internalType":"uint256"},{"name":"link","type":"string","internalType":"string"}],"outputs":[],"stateMutability":"nonpayable"},{"type":"event","name":"CampaignCreated","inputs":[{"name":"campaignId","type":"uint256","indexed":true,"internalType":"uint256"},{"name":"brand","type":"address","indexed":true,"internalType":"address"},{"name":"deadline","type":"uint256","indexed":false,"internalType":"uint256"},{"name":"budget","type":"uint256","indexed":false,"internalType":"uint256"}],"anonymous":false}],"bytecode":{"object":"0x6080604052348015600e575f5ffd5b50611c568061001c5f395ff3fe608060405260043610610085575f3560e01c80637be24cb8116100585780637be24cb81461014357806386bb8f371461017f578063a3303a75146101a7578063b10edcce146101d7578063b7ed7071146101ff57610085565b8063141961bc146100895780631978e0d3146100c95780635d63f6c6146100f15780636caa921814610119575b5f5ffd5b348015610094575f5ffd5b506100af60048036038101906100aa9190610ea0565b61023f565b6040516100c0959493929190610f33565b60405180910390f35b3480156100d4575f5ffd5b506100ef60048036038101906100ea9190610ea0565b6102aa565b005b3480156100fc575f5ffd5b5061011760048036038101906101129190610fe5565b6104d3565b005b348015610124575f5ffd5b5061012d610666565b60405161013a9190611042565b60405180910390f35b34801561014e575f5ffd5b5061016960048036038101906101649190610ea0565b610671565b6040516101769190611042565b60405180910390f35b34801561018a575f5ffd5b506101a560048036038101906101a0919061105b565b610689565b005b6101c160048036038101906101bc9190610ea0565b61096b565b6040516101ce9190611042565b60405180910390f35b3480156101e2575f5ffd5b506101fd60048036038101906101f89190611099565b610aed565b005b34801561020a575f5ffd5b506102256004803603810190610220919061105b565b610ce4565b604051610236959493929190611159565b60405180910390f35b5f818154811061024d575f80fd5b905f5260205f2090600602015f91509050805f015f9054906101000a900473ffffffffffffffffffffffffffffffffffffffff1690806001015490806002015490806003015490806004015f9054906101000a900460ff16905085565b5f6102b482610df8565b9050805f015f9054906101000a900473ffffffffffffffffffffffffffffffffffffffff1673ffffffffffffffffffffffffffffffffffffffff163373ffffffffffffffffffffffffffffffffffffffff1614610346576040517f08c379a000000000000000000000000000000000000000000000000000000000815260040161033d906111fb565b60405180910390fd5b806001015442101561038d576040517f08c379a000000000000000000000000000000000000000000000000000000000815260040161038490611263565b60405180910390fd5b806004015f9054906101000a900460ff16156103de576040517f08c379a00000000000000000000000000000000000000000000000000000000081526004016103d5906112cb565b60405180910390fd5b5f816003015411610424576040517f08c379a000000000000000000000000000000000000000000000000000000000815260040161041b90611333565b60405180910390fd5b5f5f90505b81600501805490508110156104b2578160030154826002015483600501838154811061045857610457611351565b5b905f5260205f2090600502016002015461047291906113ab565b61047c9190611419565b82600501828154811061049257610491611351565b5b905f5260205f209060050201600301819055508080600101915050610429565b506001816004015f6101000a81548160ff0219169083151502179055505050565b5f6104dd84610df8565b905080600101544210610525576040517f08c379a000000000000000000000000000000000000000000000000000000000815260040161051c90611493565b60405180910390fd5b806005016040518060a001604052803373ffffffffffffffffffffffffffffffffffffffff16815260200185858080601f0160208091040260200160405190810160405280939291908181526020018383808284375f81840152601f19601f8201169050808301925050505050505081526020015f81526020015f81526020015f1515815250908060018154018082558091505060019003905f5260205f2090600502015f909190919091505f820151815f015f6101000a81548173ffffffffffffffffffffffffffffffffffffffff021916908373ffffffffffffffffffffffffffffffffffffffff160217905550602082015181600101908161062a91906116db565b5060408201518160020155606082015181600301556080820151816004015f6101000a81548160ff021916908315150217905550505050505050565b5f5f80549050905090565b5f61067b82610df8565b600501805490509050919050565b5f61069383610df8565b9050806004015f9054906101000a900460ff166106e5576040517f08c379a00000000000000000000000000000000000000000000000000000000081526004016106dc906117f4565b60405180910390fd5b8060050180549050821061072e576040517f08c379a00000000000000000000000000000000000000000000000000000000081526004016107259061185c565b60405180910390fd5b5f81600501838154811061074557610744611351565b5b905f5260205f2090600502019050805f015f9054906101000a900473ffffffffffffffffffffffffffffffffffffffff1673ffffffffffffffffffffffffffffffffffffffff163373ffffffffffffffffffffffffffffffffffffffff16146107e3576040517f08c379a00000000000000000000000000000000000000000000000000000000081526004016107da906118c4565b60405180910390fd5b806004015f9054906101000a900460ff1615610834576040517f08c379a000000000000000000000000000000000000000000000000000000000815260040161082b9061192c565b60405180910390fd5b5f81600301541161087a576040517f08c379a000000000000000000000000000000000000000000000000000000000815260040161087190611994565b60405180910390fd5b6001816004015f6101000a81548160ff0219169083151502179055505f815f015f9054906101000a900473ffffffffffffffffffffffffffffffffffffffff1673ffffffffffffffffffffffffffffffffffffffff1682600301546040516108e1906119df565b5f6040518083038185875af1925050503d805f811461091b576040519150601f19603f3d011682016040523d82523d5f602084013e610920565b606091505b5050905080610964576040517f08c379a000000000000000000000000000000000000000000000000000000000815260040161095b90611a3d565b60405180910390fd5b5050505050565b5f5f34116109ae576040517f08c379a00000000000000000000000000000000000000000000000000000000081526004016109a590611aa5565b60405180910390fd5b5f82116109f0576040517f08c379a00000000000000000000000000000000000000000000000000000000081526004016109e790611b0d565b60405180910390fd5b5f8054905090505f60018160018154018082558091505003905f5260205f209050505f5f8281548110610a2657610a25611351565b5b905f5260205f209060060201905033815f015f6101000a81548173ffffffffffffffffffffffffffffffffffffffff021916908373ffffffffffffffffffffffffffffffffffffffff1602179055508242610a819190611b2b565b81600101819055503481600201819055503373ffffffffffffffffffffffffffffffffffffffff16827f91b289a829e71d811b8c69e4a24ba2d40d115d8a236e9a724cb3bb2d43cf7223836001015434604051610adf929190611b5e565b60405180910390a350919050565b5f610af784610df8565b9050805f015f9054906101000a900473ffffffffffffffffffffffffffffffffffffffff1673ffffffffffffffffffffffffffffffffffffffff163373ffffffffffffffffffffffffffffffffffffffff1614610b89576040517f08c379a0000000000000000000000000000000000000000000000000000000008152600401610b80906111fb565b60405180910390fd5b8060010154421015610bd0576040517f08c379a0000000000000000000000000000000000000000000000000000000008152600401610bc790611263565b60405180910390fd5b806004015f9054906101000a900460ff1615610c21576040517f08c379a0000000000000000000000000000000000000000000000000000000008152600401610c18906112cb565b60405180910390fd5b80600501805490508310610c6a576040517f08c379a0000000000000000000000000000000000000000000000000000000008152600401610c619061185c565b60405180910390fd5b806005018381548110610c8057610c7f611351565b5b905f5260205f2090600502016002015482610c9b9190611b85565b816003015f828254610cad9190611b2b565b9250508190555081816005018481548110610ccb57610cca611351565b5b905f5260205f2090600502016002018190555050505050565b5f60605f5f5f5f610cf488610df8565b6005018781548110610d0957610d08611351565b5b905f5260205f2090600502019050805f015f9054906101000a900473ffffffffffffffffffffffffffffffffffffffff168160010182600201548360030154846004015f9054906101000a900460ff16838054610d659061150b565b80601f0160208091040260200160405190810160405280929190818152602001828054610d919061150b565b8015610ddc5780601f10610db357610100808354040283529160200191610ddc565b820191905f5260205f20905b815481529060010190602001808311610dbf57829003601f168201915b5050505050935095509550955095509550509295509295909350565b5f5f805490508210610e3f576040517f08c379a0000000000000000000000000000000000000000000000000000000008152600401610e3690611c02565b60405180910390fd5b5f8281548110610e5257610e51611351565b5b905f5260205f2090600602019050919050565b5f5ffd5b5f5ffd5b5f819050919050565b610e7f81610e6d565b8114610e89575f5ffd5b50565b5f81359050610e9a81610e76565b92915050565b5f60208284031215610eb557610eb4610e65565b5b5f610ec284828501610e8c565b91505092915050565b5f73ffffffffffffffffffffffffffffffffffffffff82169050919050565b5f610ef482610ecb565b9050919050565b610f0481610eea565b82525050565b610f1381610e6d565b82525050565b5f8115159050919050565b610f2d81610f19565b82525050565b5f60a082019050610f465f830188610efb565b610f536020830187610f0a565b610f606040830186610f0a565b610f6d6060830185610f0a565b610f7a6080830184610f24565b9695505050505050565b5f5ffd5b5f5ffd5b5f5ffd5b5f5f83601f840112610fa557610fa4610f84565b5b8235905067ffffffffffffffff811115610fc257610fc1610f88565b5b602083019150836001820283011115610fde57610fdd610f8c565b5b9250929050565b5f5f5f60408486031215610ffc57610ffb610e65565b5b5f61100986828701610e8c565b935050602084013567ffffffffffffffff81111561102a57611029610e69565b5b61103686828701610f90565b92509250509250925092565b5f6020820190506110555f830184610f0a565b92915050565b5f5f6040838503121561107157611070610e65565b5b5f61107e85828601610e8c565b925050602061108f85828601610e8c565b9150509250929050565b5f5f5f606084860312156110b0576110af610e65565b5b5f6110bd86828701610e8c565b93505060206110ce86828701610e8c565b92505060406110df86828701610e8c565b9150509250925092565b5f81519050919050565b5f82825260208201905092915050565b8281835e5f83830152505050565b5f601f19601f8301169050919050565b5f61112b826110e9565b61113581856110f3565b9350611145818560208601611103565b61114e81611111565b840191505092915050565b5f60a08201905061116c5f830188610efb565b818103602083015261117e8187611121565b905061118d6040830186610f0a565b61119a6060830185610f0a565b6111a76080830184610f24565b9695505050505050565b7f4f6e6c79206272616e642063616e2063616c6c207468697300000000000000005f82015250565b5f6111e56018836110f3565b91506111f0826111b1565b602082019050919050565b5f6020820190508181035f830152611212816111d9565b9050919050565b7f43616d706169676e206973207374696c6c2061637469766500000000000000005f82015250565b5f61124d6018836110f3565b915061125882611219565b602082019050919050565b5f6020820190508181035f83015261127a81611241565b9050919050565b7f526573756c747320616c72656164792066696e616c697a6564000000000000005f82015250565b5f6112b56019836110f3565b91506112c082611281565b602082019050919050565b5f6020820190508181035f8301526112e2816112a9565b9050919050565b7f4e6f207669657773207265636f726465640000000000000000000000000000005f82015250565b5f61131d6011836110f3565b9150611328826112e9565b602082019050919050565b5f6020820190508181035f83015261134a81611311565b9050919050565b7f4e487b71000000000000000000000000000000000000000000000000000000005f52603260045260245ffd5b7f4e487b71000000000000000000000000000000000000000000000000000000005f52601160045260245ffd5b5f6113b582610e6d565b91506113c083610e6d565b92508282026113ce81610e6d565b915082820484148315176113e5576113e461137e565b5b5092915050565b7f4e487b71000000000000000000000000000000000000000000000000000000005f52601260045260245ffd5b5f61142382610e6d565b915061142e83610e6d565b92508261143e5761143d6113ec565b5b828204905092915050565b7f43616d706169676e2068617320656e64656400000000000000000000000000005f82015250565b5f61147d6012836110f3565b915061148882611449565b602082019050919050565b5f6020820190508181035f8301526114aa81611471565b9050919050565b7f4e487b71000000000000000000000000000000000000000000000000000000005f52604160045260245ffd5b7f4e487b71000000000000000000000000000000000000000000000000000000005f52602260045260245ffd5b5f600282049050600182168061152257607f821691505b602082108103611535576115346114de565b5b50919050565b5f819050815f5260205f209050919050565b5f6020601f8301049050919050565b5f82821b905092915050565b5f600883026115977fffffffffffffffffffffffffffffffffffffffffffffffffffffffffffffffff8261155c565b6115a1868361155c565b95508019841693508086168417925050509392505050565b5f819050919050565b5f6115dc6115d76115d284610e6d565b6115b9565b610e6d565b9050919050565b5f819050919050565b6115f5836115c2565b611609611601826115e3565b848454611568565b825550505050565b5f5f905090565b611620611611565b61162b8184846115ec565b505050565b5b8181101561164e576116435f82611618565b600181019050611631565b5050565b601f821115611693576116648161153b565b61166d8461154d565b8101602085101561167c578190505b6116906116888561154d565b830182611630565b50505b505050565b5f82821c905092915050565b5f6116b35f1984600802611698565b1980831691505092915050565b5f6116cb83836116a4565b9150826002028217905092915050565b6116e4826110e9565b67ffffffffffffffff8111156116fd576116fc6114b1565b5b611707825461150b565b611712828285611652565b5f60209050601f831160018114611743575f8415611731578287015190505b61173b85826116c0565b8655506117a2565b601f1984166117518661153b565b5f5b8281101561177857848901518255600182019150602085019450602081019050611753565b868310156117955784890151611791601f8916826116a4565b8355505b6001600288020188555050505b505050505050565b7f526573756c7473206e6f742066696e616c697a656420796574000000000000005f82015250565b5f6117de6019836110f3565b91506117e9826117aa565b602082019050919050565b5f6020820190508181035f83015261180b816117d2565b9050919050565b7f496e76616c6964207375626d697373696f6e20696e64657800000000000000005f82015250565b5f6118466018836110f3565b915061185182611812565b602082019050919050565b5f6020820190508181035f8301526118738161183a565b9050919050565b7f4f6e6c792063726561746f722063616e20636c61696d000000000000000000005f82015250565b5f6118ae6016836110f3565b91506118b98261187a565b602082019050919050565b5f6020820190508181035f8301526118db816118a2565b9050919050565b7f52657761726420616c726561647920636c61696d6564000000000000000000005f82015250565b5f6119166016836110f3565b9150611921826118e2565b602082019050919050565b5f6020820190508181035f8301526119438161190a565b9050919050565b7f4e6f2072657761726420746f20636c61696d00000000000000000000000000005f82015250565b5f61197e6012836110f3565b91506119898261194a565b602082019050919050565b5f6020820190508181035f8301526119ab81611972565b9050919050565b5f81905092915050565b50565b5f6119ca5f836119b2565b91506119d5826119bc565b5f82019050919050565b5f6119e9826119bf565b9150819050919050565b7f5472616e73666572206661696c656400000000000000000000000000000000005f82015250565b5f611a27600f836110f3565b9150611a32826119f3565b602082019050919050565b5f6020820190508181035f830152611a5481611a1b565b9050919050565b7f427564676574206d7573742062652067726561746572207468616e20300000005f82015250565b5f611a8f601d836110f3565b9150611a9a82611a5b565b602082019050919050565b5f6020820190508181035f830152611abc81611a83565b9050919050565b7f4475726174696f6e206d7573742062652067726561746572207468616e2030005f82015250565b5f611af7601f836110f3565b9150611b0282611ac3565b602082019050919050565b5f6020820190508181035f830152611b2481611aeb565b9050919050565b5f611b3582610e6d565b9150611b4083610e6d565b9250828201905080821115611b5857611b5761137e565b5b92915050565b5f604082019050611b715f830185610f0a565b611b7e6020830184610f0a565b9392505050565b5f611b8f82610e6d565b9150611b9a83610e6d565b9250828203905081811115611bb257611bb161137e565b5b92915050565b7f43616d706169676e20646f6573206e6f742065786973740000000000000000005f82015250565b5f611bec6017836110f3565b9150611bf782611bb8565b602082019050919050565b5f6020820190508181035f830152611c1981611be0565b905091905056fea2646970667358221220dbfb05c62b2b359818696290d5732eb6bc43202065c365f657d8145b02bf3b2464736f6c634300081e0033","linkReferences":{}},"methodIdentifiers":{"campaigns(uint256)":"141961bc","claimReward(uint256,uint256)":"86bb8f37","createCampaign(uint256)":"a3303a75","finalizeResults(uint256)":"1978e0d3","getCampaignCount()":"6caa9218","getSubmission(uint256,uint256)":"b7ed7071","getSubmissionCount(uint256)":"7be24cb8","setViews(uint256,uint256,uint256)":"b10edcce","submit(uint256,string)":"5d63f6c6"},"id":0}